:1000000000308A0063280000FF00030E8301A10076
:100010000A08A0008A010408A2007708A300780853
:10002000A4007908A5007A08A6007B08A70083131E
:1000300083120B1E1D288B183028220884002308E9
:10004000F7002408F8002508F9002608FA00270818
:10005000FB0020088A00210E8300FF0E7F0E09009E
:100060008A110A1248282A308400831300080319D1
:1000700047280C30F800F701F70B3C28F80B3B2819
:10008000F730F700F70B42284528800B3928003459
:1000900086146430AA00332086106430AA0033200E
:1000A000A8012808093C031C5F2886141930AA00FF
:1000B000332086101930AA003320A80A51288B104B
:1000C0008A110A121D28840183131F3083054030D2
:1000D00083169900A23098009030831298008316FE
:1000E0001F149F141F159F1107309C00FF308312AF
:1000F000A90083161F149F141F159F1183121F1030
:100100008316091283129412A912290883168700F4
:10011000831229162908831687008312A91129083A
:1001200083168700013083129400003083169400F8
:100130000108C73908388100831290010030F800A7
:10014000920000308316920007309C000508213091
:10015000F700F70BA9281C0883120D1383169D01C5
:1001600001308600831286018316011383120B1659
:08017000C0308B04BA286300C3
:02400E00393F38
:00000001FF
;PIC16F877A
