:1000000000308A003C2B00000A108A100A11820777
:1000100028340C34013406340A108A100A1182077D
:1000200020346234793420342034683461346B34C1
:1000300061346E3420346F347A34623465346B3416
:1000400020340A3400340A108A100A1182076134FD
:1000500064346334203475347934673475346C34E3
:1000600061346D3461346C34613472346934003419
:100070000A108A100A1182070C34643469346A3415
:100080006934743461346C343D3425346C347534E3
:1000900000340A108A100A11820761346E34613408
:1000A0006C346F3467343D3425342E343234663446
:1000B00056340034353084008313000803196E2849
:1000C0000130F800F701F70B6328F80B62284A307B
:1000D000F700F70B69286C28800B602800343C0E71
:1000E000F039F7000F30060577048600000006148B
:1000F0007928061000348610F030831686008312AB
:1001000006150000061400000608060E0F39BC0094
:1001100006100000061400000608060E0F39BB008A
:10012000061000308316860083123C0EF700F03074
:10013000F70577083B04F8007808BB00BB1B7C2858
:10014000391C8610391886140000061100000610AC
:100150003A0EBB000F30BB053B08BC006F203A08CD
:100160000F39BB00BC006F200034003083168600BE
:1001700083128610061106100F30B5005A20013088
:10018000A6002608033C031CCD280330BC006F20CA
:100190000530B5005A20A60AC1280230BC006F20E5
:1001A000A6012608033C031CDE2826080420A7001D
:1001B000B9012708BA007B20A60AD1288A110A12A1
:1001C0005A2B360BE428E7284030B700E828B7015F
:1001D00001303502B70737088038B800B901380850
:1001E000BA007B20003434080C3A0319FE28063A82
:1001F00003190629023A03190C291129B901013002
:10020000BA007B200230B5005A2017290130B50012
:100210000230B600E1201729B9011030BA007B2066
:1002200017290130B9003408BA007B20172900349F
:100230008E30F7002708F8002608F900FA01F808C0
:10024000031D2C297908F800F9010830F702F80895
:10025000031D2C29F70134290310F81B3329F90D4C
:10026000F80DF7032C29F8138A110A12972B34087A
:100270000319A729BC0038080319A729BC070318CC
:1002800048297F30BC02031CA7290319A7294C2940
:100290008130BC070318A7293C08F700F801F901D1
:1002A000FA013508C000C0173608BF003708BE0085
:1002B0001830BC00BD013E1C75293B08FA07031C21
:1002C0006729F90A031D6729F80A0319BD173A08B7
:1002D000F907031C6E29F80A0319BD173908B6007F
:1002E000B6173608F8070318BD17BD0DF80CF90C42
:1002F000FA0CC00CBF0CBE0C0310BC0B5A29013009
:10030000F7070318A729F81B8C29C00DFA0DF90D62
:10031000F80DF7030319A729C01F9D29FA0A031D29
:100320009D29F90A031D9D29F80A031D9D29F80C32
:10033000F90CFA0CF70A0319A7293508BD0039088A
:10034000BD06BD1FA529F817AB29F813AB29F70186
:10035000F801F901FA010034AF010408AE002F10D2
:10036000831B2F14280EF038AA00AA07E23EAB0028
:10037000323EAD0028080F39AB07AB07AD07E93EA9
:10038000AC00AC07AC07270E0F39AC07AD07AC0DBE
:10039000AD0DAD09AD0D27080F39AD07AA0D07301A
:1003A000A9000A30AD07AC03031CD229AC07AB038C
:1003B000031CD629AB07AA03031CDA29AA07A90341
:1003C000031CDE2929308400831307302E052E13E9
:1003D00084072D30040203192E170008F700031DAF
:1003E000F9292E1BF9292E1A0B2AAE19F9292030CA
:1003F000FC29AE152E123030F707A8010408A7001B
:100400002810831B28147708B400F32027088400E1
:10041000831328188317840A2E1FE9298A110A12C8
:10042000C22BF701F801F901FA01BC01BD01BE01BF
:10043000BF013B083A043904380403194F2A20301D
:10044000C0000310B40DB50DB60DB70DBC0DBD0D3C
:10045000BE0DBF0D3B083F02031D382A3A083E027D
:10046000031D382A39083D02031D382A38083C028A
:10047000031C492A3808BC023908031C390FBD0285
:100480003A08031C3A0FBE023B08031C3B0FBF0295
:100490000314F70DF80DF90DFA0DC00B212A3C30AD
:1004A0008400831300340408AC002B08AE00031949
:1004B000722A2A08B7002908B6002808B5002708BC
:1004C000B400BB01BA012030B9008230B800372136
:1004D0007A08AA007908A9007808A8007708A70078
:1004E000AE0B592A2A08B7002908B6002808B5001B
:1004F0002708B4003408B63CB400FA013508B80047
:10050000B5170310B50CB60CB70CFA0CF90CF80CB7
:10051000F70CB40B812AB81F982AF709F809F909D2
:10052000FA09F70A0319F80A0319F90A0319FA0A6A
:100530007A08AA007908A9007808A8007708A70017
:10054000AA1FAF2AAC03AC16A709A809A909AA09D2
:10055000A70A0319A80A0319A90A0319AA0A3B3012
:10056000B3009A30B200CA30B100B0010A30AE0018
:100570002B080319AC0A2A08B7002908B600280876
:10058000B5002708B4003308BB003208BA003108B0
:10059000B9003008B80011220008A700840A00083A
:1005A000A800840A0008A900840A0008AA00FD30F7
:1005B0008407F708031DEF2A2B0A2E020319EF2ADE
:1005C0002C080319F12A0F392E020319E92A0318FE
:1005D000212BAC1B212B2C1BF12A20301D2B203072
:1005E000AC05AC1EFF2AAC122B08031DAC03770828
:1005F000AC002D30B400F3202C08F700AC012B0820
:100600002E02031D0D2B7708AC002E30B400F32012
:100610002C08F7002030AC0500303030AC1E1D2B0C
:10062000AC122B08031DAC037708AC002D30B400CE
:10063000F3202C08F700AC013030F7077708B4003E
:10064000F3203308B7003208B6003108B50030088F
:10065000B400BB01BA01B9010A30B80011227A080E
:10066000B3007908B2007808B1007708B000AE0B8B
:10067000BB2A8A110A12DF2B840183131F308305E2
:1006800083161F149F141F159F1107309C00013003
:100690008500003086001F1383121F139F178316D7
:1006A0009F1783121F1483161F109F101F119F1175
:1006B0008312B528A60126080C20A60AF700B4006C
:1006C000F32012302602031D5B2B0430A600FA3003
:1006D000B5005A20A60B672BA60126082320A60AE0
:1006E000F700B400F32010302602031D6D2B0430F8
:1006F000A600FA30B5005A20A60B792B0030F8007E
:100700001F08C73978049F001030F700F70B862BBD
:1007100000001F151F198A2B83161E088312A000C4
:100720001E08A1002108A7002008A6001829E5300E
:10073000B700FF30B6001F30B5007730B4007A083C
:10074000BB007908BA007808B9007708B8003721EB
:100750007A08A5007908A4007808A3007708A20009
:10076000A60126083820A60AF700B400F3200930B5
:100770002602031DB12B103084002108A800200898
:10078000A700AC290130B5000230B600E120A60177
:1007900026084920A60AF700B400F32007302602F5
:1007A000031DC82B893084002508AA002408A9004D
:1007B0002308A8002208A7000230AB00532A5630B5
:1007C000B400F3200430A600FA30B5005A20A60B7E
:0607D000E42B7E2B630008
:02400E00393F38
:00000001FF
;PIC16F877A
