:1000000000308A0004280000840183131F30830518
:10001000403083169900A2309800903083129800E7
:1000200083161F149F141F159F1107309C00FF306B
:100030008312A00083161F149F141F159F11831293
:100040001F108316091283129412A012200883161F
:100050008700831220162008831687008312A011C0
:100060002008831687000130831294000030831625
:1000700094000108C73908388100831290010030CC
:10008000F800920000308316920007309C000508AB
:100090002130F700F70B4A281C0883120D13831632
:1000A0009D010130850000308600860183128601A3
:1000B000831605148312051C62288316061083120A
:1000C000061466288316061083120610582863004B
:02400E00393F38
:00000001FF
;PIC16F877A
