:1000000000308A00382800000408F800A0172008F3
:10001000831687008312871B0B280830F700A20184
:10002000F7172228F71322280310871B0314A20CAA
:10003000771722287713F70B1428780884002208F2
:10004000F8003728023084000030F71B5530F800E4
:10005000F80B2828840B24282130F71B0930F800DE
:10006000F80B3028F71B1228771B1A2814280034A5
:10007000840183131F308305831605108312051432
:1000800083161F149F141F159F1107309C00FF300B
:100090008312A00000308316860086018312860139
:1000A00004207808583C031D682804207808A10023
:1000B0002108413C031D6028831606108312061494
:1000C0002108423C031D682883160610831206107F
:0400D0005028630051
:02400E00393F38
:00000001FF
;PIC16F877A
