:1000000000308A0019280000213084008313000882
:10001000031918280130F800F701F70B0D28F80B29
:100020000C284A30F700F70B13281628800B0A28F3
:100030000034840183131F308305673083169900D1
:10004000A230980090308312980083161F149F14DA
:100050001F159F1107309C0083128C1E2D281A0833
:10006000A0002008623C031D442855300C1E362891
:10007000990058300C1E3A28990041300C1E3E2839
:1000800099003230A10004202008733C031D57283A
:1000900055300C1E4928990058300C1E4D289900E7
:1000A00042300C1E512899003230A10004202D2826
:0200B0006300EB
:02400E00393F38
:00000001FF
;PIC16F877A
