:1000000000308A0048280000FF00030E8301A10091
:100010000A08A0008A010408A2007708A300780853
:10002000A4007908A5007A08A6007B08A70083131E
:1000300083128C308400001C1F280C1832282208E0
:1000400084002308F7002408F8002508F900260892
:10005000FA002708FB0020088A00210E8300FF0E0B
:100060007F0E09008A110A123528FB308F001E30DE
:100070008E00A80A2808323C031906142808643C9C
:10008000031D44280610A8010C108A110A121F280B
:10009000840183131F308305193083169900A6301D
:1000A000980090308312980083161F149F141F1518
:1000B0009F1107309C008312A801FF30A90083160E
:1000C0001F149F141F159F1183121F109412A91241
:1000D00029088316870083122916290883168700AA
:1000E0008312A91129088316870001308312940016
:1000F000003083169400F8008312920000308316BB
:10010000920007309C0005080330F700F70B8628A3
:100110001C0883120D1383169D0100308600831284
:100120008601A5309000FB308F001E308E008316B4
:0C0130000C14C03083128B049C28630068
:02400E00393F38
:00000001FF
;PIC16F877A
