:1000000000308A0044280000FF00030E8301A10095
:100010000A08A0008A010408A2007708A300780853
:10002000A4007908A5007A08A6007B08A70083131E
:1000300083128B1E1D280B193028220884002308E8
:10004000F7002408F8002508F9002608FA00270818
:10005000FB0020088A00210E8300FF0E7F0E09009E
:100060008A110A1233283C308100A80A28080A3C69
:10007000031906142808143C031D40280610A80183
:100080000B118A110A121D28840183131F30830566
:10009000193083169900A63098009030831298008A
:1000A00083161F149F141F159F1107309C00831285
:1000B000A801FF30A90083161F149F141F159F115C
:1000C00083121F109412A912290883168700831225
:1000D00029162908831687008312A9112908831677
:1000E00087000130831294000030831694000108C9
:1000F000C73908388100831290010030F80092005F
:1001000000308316920007309C0005080330F7008A
:10011000F70B88281C0883120D1383169D010030ED
:1001200086008312860183160108C03907388100D2
:100130003C30831281008B16C0308B049E286300F4
:02400E0039393E
:00000001FF
;PIC16F877A
