:1000000000308A0045280000FF00030E8301A10094
:100010000A08A0008A010408A2007708A300780853
:10002000A4007908A5007A08A6007B08A70083131E
:1000300083128B1E1D280B193028220884002308E8
:10004000F7002408F8002508F9002608FA00270818
:10005000FB0020088A00210E8300FF0E7F0E09009E
:100060008A110A123328FF308100A80A2808023CAE
:1000700003183A28280886002808033C031D412855
:10008000A8010B118A110A121D28840183131F3045
:100090008305193083169900A6309800903083129A
:1000A000980083161F149F141F159F1107309C0082
:1000B0008312A801FF30A90083161F149F141F1577
:1000C0009F1183121F109412A9122908831687000A
:1000D000831229162908831687008312A91129087B
:1000E0008316870001308312940000308316940039
:1000F00083129001F80092000030831692000730BE
:100100009C0005080330F700F70B84281C088312B5
:100110000D1383169D011030850000308600831278
:10012000860183160108C03930388100FF30831200
:0C01300081008B16C0308B049C286300FB
:02400E00393F38
:00000001FF
;PIC16F877A
