:1000000000308A002F2800000A108A100A11820787
:100010003F3406345B344F3466346D347C340734FB
:100020007F346F3477347C3439345E3479347134CE
:10003000223084008313000803192C280C30F800A8
:10004000F701F70B2128F80B2028F730F700F70B02
:1000500027282A28800B1E288A110A128C2884013E
:1000600083131F308305403083169900A230980017
:1000700090308312980083161F149F141F159F1130
:1000800007309C00FF308312A10083161F149F14B9
:100090001F159F1183121F108316091283129412C9
:1000A000A1122108831687008312211621088316C6
:1000B00087008312A1112108831687000130831263
:1000C00094000030831694000108C7390838810075
:1000D000831290010030F8009200003083169200E5
:1000E00007309C0005082130F700F70B75281C0825
:1000F00083120D1383169D01003086008312860142
:10010000A00120080F3C031C8E2820080420A20018
:1001100086000A30A2001828A00A812880286300DF
:02400E00393F38
:00000001FF
;PIC16F877A
