:1000000000308A003F2900000A108A100A11820776
:1000100028340C34013406340A108A100A1182077D
:100020000C34703477346D34203469346C34653476
:1000300020346434633420340A3420346B346F3415
:100040006E34743472346F346C34753400340A1086
:100050008A100A1182070C346434693467346934B5
:10006000743461346C343D342534753400342530B7
:1000700084008313000803194B280130F800F701AE
:10008000F70B4028F80B3F284A30F700F70B4628BB
:100090004928800B3D2800342C0EF039F7000F3032
:1000A0000605770486000000061456280610003462
:1000B0008610F030831686008312061500000614A1
:1000C00000000608060E0F39AC00061000000614EA
:1000D00000000608060E0F39AB000610003083162C
:1000E000860083122C0EF700F030F70577082B04FA
:1000F000F8007808AB00AB1B5928291C861029187A
:10010000861400000611000006102A0EAB000F3006
:10011000AB052B08AC004C202A080F39AB00AC0013
:100120004C2000340030831686008312861006119E
:1001300006100F30A50037200130A1002108033C34
:10014000031CAA280330AC004C200530A500372042
:10015000A10A9E280230AC004C20A1012108033CDA
:10016000031CBB2821080420A200A9012208AA0020
:100170005820A10AAE288A110A12792924080C3ABB
:100180000319C928063A0319D128023A0319E728A6
:10019000EC28A9010130AA0058200230A500372020
:1001A000F2280130A5000230A600260BD828DB2853
:1001B0004030A700DC28A70101302502A707270847
:1001C0008038A800A9012808AA005820F228A9010F
:1001D0001030AA005820F2280130A9002408AA00F3
:1001E0005820F22800342508F80124020318FB28BF
:1001F0002408F7000729F7010830A600A40DF70D21
:10020000250877020318F700F80DA60BFE28003426
:1002100078082208A4006430A500F3207708A20023
:1002200078083030031D1B29A31C2229A319222979
:10023000231A20301E29A31123122314F80778084B
:10024000A400BE202208A4000A30A500F3207708ED
:10025000A20078083030031D3329A3193729231C45
:100260003729231A2030F8077808A400BE20303040
:10027000A2072208A400BE208A110A12B029840114
:1002800083131F30830583161F149F141F159F119E
:1002900007309C000030F800063883129200FA30D4
:1002A00083169200831207110C3097009D0183166C
:1002B0001F1383121F139F1383169F1383121F1480
:1002C00083161F109F101F119F1100308700091403
:1002D000891409158600831287012830F8001F0849
:1002E000C73978049F000630F700F70B7529000026
:1002F0009228A10121080C20A10AF700A400BE2029
:1003000016302102031D7A290430A100FA30A5001D
:100310003720A10B862995011F151F198D291E084D
:10032000A0000630F700F70B93290000871507128D
:100330002008FA3C03189E29FA30A00020089500F6
:10034000A10121082720A10AF700A400BE2009303E
:100350002102031DA1292008A2001B30A3000829A7
:0A0360003230A50037208C2963001D
:02400E00393F38
:00000001FF
;PIC16F877A
