:1000000000308A0019280000223084008313000881
:10001000031918280130F800F701F70B0D28F80B29
:100020000C284A30F700F70B13281628800B0A28F3
:100030000034840183131F3083051930831699001F
:10004000A630980090308312980083161F149F14D6
:100050001F159F1107309C008312A001FF30A100E3
:1000600083161F149F141F159F1183121F108316D0
:10007000091283129412A112210883168700831299
:1000800021162108831687008312A11121088316E7
:100090008700013083129400003083169400010819
:1000A000C73908388100831290010030F8009200AF
:1000B00000308316920007309C0005080330F700DB
:1000C000F70B60281C0883120D1383169D01013065
:1000D0008500003086008601831286018316051490
:1000E0008312051C7928A00A8316051483120518AB
:1000F0007428200B82289630A20004208316061054
:10010000831206142008023C031D8D289630A2009D
:10011000042083168610831286142008033C031DD6
:1001200098289630A2000420831606118312061523
:100130002008043C031DB7289630A2000420831633
:1001400006100130831286069630A2000420831622
:1001500086100230831286069630A2000420831691
:1001600006110430831286069630A200042020086F
:10017000053C031DBE28A008031D00306E28630047
:02400E00393F38
:00000001FF
;PIC16F877A
