:1000000000308A00B22C00000A108A100A11820700
:1000100028340C34013406340A108A100A1182077D
:100020000C3453346934633461346B346C34693464
:100030006B343D3400340A108A100A1182074D34A3
:1000400076346F346C3474343D3425346634003483
:10005000383084008313000803193C280130F8006D
:10006000F701F70B3128F80B30284A30F700F70B6F
:1000700037283A28800B2E2800343F0EF039F7003D
:100080000F30060577048600000006144728061086
:1000900000348610F03083168600831206150000A7
:1000A000061400000608060E0F39BF0006100000F7
:1000B000061400000608060E0F39BE0006100030B8
:1000C0008316860083123F0EF700F030F70577089D
:1000D0003E04F8007808BE00BE1B4A283C1C86106F
:1000E0003C18861400000611000006103D0EBE00EC
:1000F0000F30BE053E08BF003D203D080F39BE0051
:10010000BF003D2000340030831686008312861025
:10011000061106100F30B80028200130A900290868
:10012000033C031C9B280330BF003D200530B80072
:100130002820A90A8F280230BF003D20A9012908E4
:10014000033C031CAC2829080420AA00BC012A088F
:10015000BD004920A90A9F288A110A12CE2C390B0A
:10016000B228B5284030BA00B628BA0101303802AA
:10017000BA073A088038BB00BC013B08BD004920E3
:10018000003437080C3A0319CC28063A0319D4284E
:10019000023A0319DA28DF28BC010130BD004920EA
:1001A0000230B8002820E5280130B8000230B9003C
:1001B000AF20E528BC011030BD004920E528013002
:1001C000BC003708BD004920E52800348E30F70018
:1001D0002A08F8002908F900FA01F808031DFA288E
:1001E0007908F800F9010830F702F808031DFA2829
:1001F000F70102290310F81B0129F90DF80DF70387
:10020000FA28F8138A110A12EF2C370803197529F6
:10021000BF003B0803197529BF07031816297F3053
:10022000BF02031C7529031975291A298130BF07DC
:10023000031875293F08F700F801F901FA01380899
:10024000C300C3173908C2003A08C1001830BF0004
:10025000C001411C43293E08FA07031C3529F90A4D
:10026000031D3529F80A0319C0173D08F907031CB7
:100270003C29F80A0319C0173C08B900B917390816
:10028000F8070318C017C00DF80CF90CFA0CC30CD2
:10029000C20CC10C0310BF0B28290130F70703184B
:1002A0007529F81B5A29C30DFA0DF90DF80DF7033E
:1002B00003197529C31F6B29FA0A031D6B29F90A53
:1002C000031D6B29F80A031D6B29F80CF90CFA0CB5
:1002D000F70A031975293808C0003C08C006C01F7A
:1002E0007329F8177929F8137929F701F801F90129
:1002F000FA010034290803193F2AB5002D08031913
:100300003F2AB502031C89297F30B50703183F2A0D
:100310008F298130B502031C3F2A03193F2A350873
:10032000F700F801F901FA01B4012A08B300B31784
:100330002B08B2002C08B1001930B5003008B1020A
:100340000318B2290130B2020318B229B30203180C
:10035000B229B4020318B229B40AB30AB20A3008A7
:10036000B107E4292F08B2020318CD290130B302E6
:100370000318CD29B4020318CD29B40AB30A2F08F3
:10038000B2073008B107031CE429B20A031DE429AF
:10039000B30A031DE429B40AE4292E088038B30205
:1003A0000318E3290130B4020318E329B40A2E0824
:1003B0008038B3072F08B207031CC129B30A031DF5
:1003C000C129B40AC1297A14B50BE729F22903100F
:1003D000B10DB20DB30DB40D0310FA0DF90DF80DFA
:1003E000B60D9E29361CFA290310F80CF90CFA0CEC
:1003F000B60CFD29F70303193F2AB61B262A031062
:10040000B10DB20DB30DB40D3008B1020318122AAC
:100410000130B2020318122AB3020318122AB402DE
:10042000031C352A2F08B20203181D2A0130B3021B
:1004300003181D2AB402031C352A2E088038B30283
:100440000318262A0130B402031C352AFA0A031DB8
:10045000352AF90A031D352AF80A031D352AF70A39
:1004600003193F2AF80CF90CFA0C2A08B5002E08DB
:10047000B506B51F3D2AF817432AF813432AF7019A
:10048000F801F901FA018A110A122C2D8030831823
:10049000B206B701B8012E08B6003208B6062D081C
:1004A0000319362BB500F700310803193F2BB502AD
:1004B0000319DB2A031C992A3208BB00BB17330837
:1004C000BA003408B900B8010310BB0CBA0CB90C5F
:1004D000B80CB50B632AB61F702A3714532B37108C
:1004E00035103716303084008313682B3712B61B53
:1004F000832A351C8E2ABB0CBA0CB90CB80CF70A2F
:1005000003194E2B8E2ABB1B912A0310B80DB90D6F
:10051000BA0DBB0DF70303194E2B832A3717FB2A9D
:1005200037132E08B600B61F972ABB17472BBB13ED
:10053000472B3108B500F7002D08B5022E08BB0087
:10054000BB172F08BA003008B900B8010310BB0C64
:10055000BA0CB90CB80CB50BA52AB61FB22AB71441
:10056000532BB7103510B716343084008313682B23
:10057000B712B61BC52A351CD02ABB0CBA0CB90C55
:10058000B80CF70A03194E2BD02ABB1BD32A031031
:10059000B80DB90DBA0DBB0DF70303194E2BC52AC3
:1005A000B717FB2AB7133208B600B61FD92ABB17F4
:1005B000472BBB13472B3208BB00BB173308BA00CD
:1005C0003408B900B61FE82ABB133715532B37116F
:1005D000B8013510303084008313682BB61B112B03
:1005E0002E08B600351CFB2ABB0CBA0CB90CB80C93
:1005F000F70A03194E2BB81F0C2BB90A031D0C2B3D
:10060000BA0A031D0C2BBB0A031D0C2BBB0CBA0C26
:10061000B90CF70A03194E2B371B902AB71BD22AA5
:10062000302B8030BB06BB1F192B532B3208B60072
:10063000262B2E08B600BB08031D262BBA08031D67
:10064000262BB908031D262BF701472BBB1B302B8C
:100650000310B80DB90DBA0DBB0DF70B262B4E2BA1
:10066000B61F342BBB17472BBB13472B3108F700A2
:100670003208BB003308BA003408B900472B2D08F4
:10068000F7002E08BB002F08BA003008B9003B085D
:10069000F8003A08F9003908FA00862BF701F8014A
:1006A000F901FA01862BB801B909BA09BB09B809E1
:1006B000B80A031D612BB90A031D612BBA0A03197D
:1006C000BB0A37186F2AB718B12A3719E72A162B31
:1006D0000008B907031C722BBA0A031D722BBB0A50
:1006E0000319351484030008BA07031C7A2BBB0ACC
:1006F0000319351484030008801F803ABB070318D0
:100700003514371A762AB71AB82AEE2A8A110A122D
:10071000432DF701F801F901FA01BF01C001C10140
:10072000C2013E083D043C043B040319C72B2030A2
:10073000C3000310B70DB80DB90DBA0DBF0DC00D34
:10074000C10DC20D3E084202031DB02B3D084102FF
:10075000031DB02B3C084002031DB02B3B083F0299
:10076000031CC12B3B08BF023C08031C3C0FC0020A
:100770003D08031C3D0FC1023E08031C3E0FC20290
:100780000314F70DF80DF90DFA0DC30B992B3F303B
:100790008400831300340408AF002E08B10003194D
:1007A000EA2B2D08BA002C08B9002B08B8002A083B
:1007B000B700BE01BD012030BC008230BB00052166
:1007C0007A08AD007908AC007808AB007708AA0079
:1007D000B10BD12B2D08BA002C08B9002B08B8009A
:1007E0002A08B7003708B63CB700FA013808BB0042
:1007F000B8170310B80CB90CBA0CFA0CF90CF80CB9
:10080000F70CB70BF92BBB1F102CF709F809F909E6
:10081000FA09F70A0319F80A0319F90A0319FA0A77
:100820007A08AD007908AC007808AB007708AA0018
:10083000AD1F272CAF03AF16AA09AB09AC09AD0950
:10084000AA0A0319AB0A0319AC0A0319AD0A3B3013
:10085000B6009A30B500CA30B400B3010A30B10016
:100860002E080319AF0A2D08BA002C08B9002B086E
:10087000B8002A08B7003608BE003508BD003408A5
:10088000BC003308BB0089230008AA00840A0008C2
:10089000AB00840A0008AC00840A0008AD00FD30FB
:1008A0008407F708031D672C2E0A31020319672CF1
:1008B0002F080319692C0F3931020319612C031811
:1008C000992CAF1B992C2F1B692C2030952C203094
:1008D000AF05AF1E772CAF122E08031DAF037708AC
:1008E000AF002D30B700C1202F08F700AF012E0850
:1008F0003102031D852C7708AF002E30B700C120D0
:100900002F08F7002030AF0500303030AF1E952C97
:10091000AF122E08031DAF037708AF002D30B700CC
:10092000C1202F08F700AF013030F7077708B70074
:10093000C1203608BA003508B9003408B8003308B9
:10094000B700BE01BD01BC010A30BB0089237A0893
:10095000B6007908B5007808B4007708B300B10B89
:10096000332C0034840183131F30830583161F1436
:100970009F141F159F1107309C00013085001F1325
:1009800083121F139F1783169F1783121F1483163A
:100990001F109F141F159F15831283280030F80025
:1009A0001F08C73978049F001030F700F70BD62CCA
:1009B0000000A90129080C20A90AF700B700C120EE
:1009C0000A302902031DDA2C1F151F19E52C831686
:1009D0001E088312A000AA012008A900E6283E30C4
:1009E000BA00B9012030B8007730B7007A08BE00ED
:1009F0007908BD007808BC007708BB00052177089E
:100A0000A9007808AA007908AB007A08AC00BA00FF
:100A10007908B9007808B8007708B700BE01BD01B1
:100A20007A30BC008830BB0005217A08A80079081C
:100A3000A7007808A6007708A5002808AC002708BA
:100A4000AB002608AA002508A900B001AF0120309C
:100A5000AE008230AD007A297708A9007808AA0094
:100A60007908AB007A08AC0083107A08B0007908E6
:100A7000AF007808AE007708AD00B401B301B20151
:100A80008030B100462A7A08A4007908A3007808CB
:100A9000A2007708A1000A30B8000130B900AF20E9
:100AA000893084002408AD002308AC002208AB0084
:100AB0002108AA000230AE00CB23DF30B700C120EE
:100AC0004330B700C1200130B8000230B900AF2078
:100AD000A90129081B20A90AF700B700C120063088
:100AE0002902031D692D893084002808AD002708DC
:100AF000AC002608AB002508AA000230AE00CB23CC
:100B00000430A900FA30B8002820A90B822DE42C6B
:020B1000630080
:02400E00393F38
:00000001FF
;PIC16F877A
