:1000000000308A0019280000213084008313000882
:10001000031918280C30F800F701F70B0D28F80B1E
:100020000C28F730F700F70B13281628800B0A2846
:100030000034840183131F308305403083169900F8
:10004000A230980090308312980083161F149F14DA
:100050001F159F1107309C00FF308312A0008316EC
:100060001F149F141F159F1183121F10831609124E
:1000700083129412A0122008831687008312201680
:100080002008831687008312A0112008831687009A
:100090000130831294000030831694000108C739A0
:1000A00008388100831290010030F800920000307F
:1000B0008316920007309C0005082130F700F70BEB
:1000C0005F281C0883120D1383169D0100308600E3
:1000D0008601831286018316061083120614FA30F5
:1000E000A10004208316061083120610FA30A10026
:1000F00004208316861083128614FA30A10004208F
:100100008316861083128610FA30A10004206B2813
:0201100063008A
:02400E00393F38
:00000001FF
;PIC16F877A
